{
  "contractName": "Voting",
  "abi": [
    {
      "constant": true,
      "inputs": [
        {
          "name": "",
          "type": "bytes32"
        }
      ],
      "name": "votesReceived",
      "outputs": [
        {
          "name": "",
          "type": "uint8"
        }
      ],
      "payable": false,
      "stateMutability": "view",
      "type": "function"
    },
    {
      "constant": true,
      "inputs": [
        {
          "name": "",
          "type": "uint256"
        }
      ],
      "name": "candidateList",
      "outputs": [
        {
          "name": "",
          "type": "bytes32"
        }
      ],
      "payable": false,
      "stateMutability": "view",
      "type": "function"
    },
    {
      "inputs": [
        {
          "name": "candidateNames",
          "type": "bytes32[]"
        }
      ],
      "payable": false,
      "stateMutability": "nonpayable",
      "type": "constructor"
    },
    {
      "constant": false,
      "inputs": [
        {
          "name": "candidate",
          "type": "bytes32"
        }
      ],
      "name": "voteForCandidate",
      "outputs": [],
      "payable": false,
      "stateMutability": "nonpayable",
      "type": "function"
    },
    {
      "constant": true,
      "inputs": [
        {
          "name": "candidate",
          "type": "bytes32"
        }
      ],
      "name": "totalVotesFor",
      "outputs": [
        {
          "name": "",
          "type": "uint8"
        }
      ],
      "payable": false,
      "stateMutability": "view",
      "type": "function"
    },
    {
      "constant": true,
      "inputs": [
        {
          "name": "candidate",
          "type": "bytes32"
        }
      ],
      "name": "validCandidate",
      "outputs": [
        {
          "name": "",
          "type": "bool"
        }
      ],
      "payable": false,
      "stateMutability": "view",
      "type": "function"
    }
  ],
  "bytecode": "0x608060405234801561001057600080fd5b506040516104773803806104778339810180604052602081101561003357600080fd5b81019080805164010000000081111561004b57600080fd5b8281019050602081018481111561006157600080fd5b815185602082028301116401000000008211171561007e57600080fd5b5050929190505050806000908051906020019061009c9291906100a3565b5050610115565b8280548282559060005260206000209081019282156100df579160200282015b828111156100de5782518255916020019190600101906100c3565b5b5090506100ec91906100f0565b5090565b61011291905b8082111561010e5760008160009055506001016100f6565b5090565b90565b610353806101246000396000f3fe60806040526004361061006d576000357c0100000000000000000000000000000000000000000000000000000000900463ffffffff1680632f265cf714610072578063392e6678146100c75780637021939f1461011a578063b13c744b1461016f578063cc9ab267146101be575b600080fd5b34801561007e57600080fd5b506100ab6004803603602081101561009557600080fd5b81019080803590602001909291905050506101f9565b604051808260ff1660ff16815260200191505060405180910390f35b3480156100d357600080fd5b50610100600480360360208110156100ea57600080fd5b8101908080359060200190929190505050610237565b604051808215151515815260200191505060405180910390f35b34801561012657600080fd5b506101536004803603602081101561013d57600080fd5b810190808035906020019092919050505061028f565b604051808260ff1660ff16815260200191505060405180910390f35b34801561017b57600080fd5b506101a86004803603602081101561019257600080fd5b81019080803590602001909291905050506102af565b6040518082815260200191505060405180910390f35b3480156101ca57600080fd5b506101f7600480360360208110156101e157600080fd5b81019080803590602001909291905050506102d2565b005b600061020482610237565b151561020f57600080fd5b6001600083815260200190815260200160002060009054906101000a900460ff169050919050565b600080600090505b600080549050811015610284578260008281548110151561025c57fe5b9060005260206000200154141561027757600191505061028a565b808060010191505061023f565b50600090505b919050565b60016020528060005260406000206000915054906101000a900460ff1681565b6000818154811015156102be57fe5b906000526020600020016000915090505481565b6102db81610237565b15156102e657600080fd5b600180600083815260200190815260200160002060008282829054906101000a900460ff160192506101000a81548160ff021916908360ff1602179055505056fea165627a7a723058203e043b94dfb37e10c9e7a34b90afe2f1ce23cba129e24c5d253a34cef80c64af0029",
  "source": "pragma solidity >0.4.99 <0.6.0;\n\ncontract Voting {\n  // constructor to initialize candidates\n  // vote for candidates\n  // get count of votes for each candidates\n\n  bytes32[] public candidateList;\n  mapping (bytes32 => uint8) public votesReceived;\n\n  constructor(bytes32[] memory candidateNames) public {\n    candidateList = candidateNames;\n  }\n\n  function voteForCandidate(bytes32 candidate) public {\n    require(validCandidate(candidate));\n    votesReceived[candidate] += 1;\n  }\n\n  function totalVotesFor(bytes32 candidate) view public returns(uint8) {\n    require(validCandidate(candidate));\n    return votesReceived[candidate];\n  }\n\n  function validCandidate(bytes32 candidate) view public returns (bool) {\n    for(uint i=0; i < candidateList.length; i++) {\n      if (candidateList[i] == candidate) {\n        return true;\n      }\n    }\n    return false;\n  }\n\n}\n",
  "sourcePath": "/Users/ryokotominaga/projects/Zastrin/ethereum_voting_dapp/chapter2/contracts/Voting.sol",
  "compiler": {
    "name": "solc",
    "version": "0.5.0+commit.1d4f565a.Emscripten.clang"
  },
  "schemaVersion": "3.0.1",
  "updatedAt": "2019-01-09T13:17:54.780Z",
  "devdoc": {
    "methods": {}
  },
  "userdoc": {
    "methods": {}
  }
}